{
  "_format": "hh-sol-artifact-1",
  "contractName": "Santin",
  "sourceName": "contracts/Santin.sol",
  "abi": [
    {
      "anonymous": false,
      "inputs": [
        {
          "indexed": false,
          "internalType": "string",
          "name": "eventMessage",
          "type": "string"
        }
      ],
      "name": "MyEvent",
      "type": "event"
    },
    {
      "inputs": [
        {
          "internalType": "string",
          "name": "_message",
          "type": "string"
        }
      ],
      "name": "changeMessage",
      "outputs": [
        {
          "internalType": "string",
          "name": "",
          "type": "string"
        }
      ],
      "stateMutability": "nonpayable",
      "type": "function"
    },
    {
      "inputs": [
        {
          "internalType": "string",
          "name": "_eventMessage",
          "type": "string"
        }
      ],
      "name": "emitEvent",
      "outputs": [],
      "stateMutability": "nonpayable",
      "type": "function"
    },
    {
      "inputs": [],
      "name": "get_message",
      "outputs": [
        {
          "internalType": "string",
          "name": "",
          "type": "string"
        }
      ],
      "stateMutability": "view",
      "type": "function"
    }
  ],
  "bytecode": "0x60806040526040518060400160405280600381526020017f4f6c610000000000000000000000000000000000000000000000000000000000815250600090816200004a9190620002d9565b503480156200005857600080fd5b50620003c0565b600081519050919050565b7f4e487b7100000000000000000000000000000000000000000000000000000000600052604160045260246000fd5b7f4e487b7100000000000000000000000000000000000000000000000000000000600052602260045260246000fd5b60006002820490506001821680620000e157607f821691505b602082108103620000f757620000f662000099565b5b50919050565b60008190508160005260206000209050919050565b60006020601f8301049050919050565b600082821b905092915050565b600060088302620001617fffffffffffffffffffffffffffffffffffffffffffffffffffffffffffffffff8262000122565b6200016d868362000122565b95508019841693508086168417925050509392505050565b6000819050919050565b6000819050919050565b6000620001ba620001b4620001ae8462000185565b6200018f565b62000185565b9050919050565b6000819050919050565b620001d68362000199565b620001ee620001e582620001c1565b8484546200012f565b825550505050565b600090565b62000205620001f6565b62000212818484620001cb565b505050565b5b818110156200023a576200022e600082620001fb565b60018101905062000218565b5050565b601f82111562000289576200025381620000fd565b6200025e8462000112565b810160208510156200026e578190505b620002866200027d8562000112565b83018262000217565b50505b505050565b600082821c905092915050565b6000620002ae600019846008026200028e565b1980831691505092915050565b6000620002c983836200029b565b9150826002028217905092915050565b620002e4826200005f565b67ffffffffffffffff8111156200030057620002ff6200006a565b5b6200030c8254620000c8565b620003198282856200023e565b600060209050601f8311600181146200035157600084156200033c578287015190505b620003488582620002bb565b865550620003b8565b601f1984166200036186620000fd565b60005b828110156200038b5784890151825560018201915060208501945060208101905062000364565b86831015620003ab5784890151620003a7601f8916826200029b565b8355505b6001600288020188555050505b505050505050565b6107bd80620003d06000396000f3fe608060405234801561001057600080fd5b50600436106100415760003560e01c806332af2edb1461004657806360fd1c4f14610064578063982296a814610094575b600080fd5b61004e6100b0565b60405161005b91906102eb565b60405180910390f35b61007e60048036038101906100799190610456565b610142565b60405161008b91906102eb565b60405180910390f35b6100ae60048036038101906100a99190610456565b610221565b005b6060600080546100bf906104ce565b80601f01602080910402602001604051908101604052809291908181526020018280546100eb906104ce565b80156101385780601f1061010d57610100808354040283529160200191610138565b820191906000526020600020905b81548152906001019060200180831161011b57829003601f168201915b5050505050905090565b60606101826040518060400160405280601b81526020017f467261736520616c74657261646120636f6d207375636573736f210000000000815250610221565b816000908161019191906106b5565b805461019c906104ce565b80601f01602080910402602001604051908101604052809291908181526020018280546101c8906104ce565b80156102155780601f106101ea57610100808354040283529160200191610215565b820191906000526020600020905b8154815290600101906020018083116101f857829003601f168201915b50505050509050919050565b7f695a9e8aa4a54f62feafe2a96f107e287ede90c04f975155faf83eacbb68d27c8160405161025091906102eb565b60405180910390a150565b600081519050919050565b600082825260208201905092915050565b60005b8381101561029557808201518184015260208101905061027a565b60008484015250505050565b6000601f19601f8301169050919050565b60006102bd8261025b565b6102c78185610266565b93506102d7818560208601610277565b6102e0816102a1565b840191505092915050565b6000602082019050818103600083015261030581846102b2565b905092915050565b6000604051905090565b600080fd5b600080fd5b600080fd5b600080fd5b7f4e487b7100000000000000000000000000000000000000000000000000000000600052604160045260246000fd5b610363826102a1565b810181811067ffffffffffffffff821117156103825761038161032b565b5b80604052505050565b600061039561030d565b90506103a1828261035a565b919050565b600067ffffffffffffffff8211156103c1576103c061032b565b5b6103ca826102a1565b9050602081019050919050565b82818337600083830152505050565b60006103f96103f4846103a6565b61038b565b90508281526020810184848401111561041557610414610326565b5b6104208482856103d7565b509392505050565b600082601f83011261043d5761043c610321565b5b813561044d8482602086016103e6565b91505092915050565b60006020828403121561046c5761046b610317565b5b600082013567ffffffffffffffff81111561048a5761048961031c565b5b61049684828501610428565b91505092915050565b7f4e487b7100000000000000000000000000000000000000000000000000000000600052602260045260246000fd5b600060028204905060018216806104e657607f821691505b6020821081036104f9576104f861049f565b5b50919050565b60008190508160005260206000209050919050565b60006020601f8301049050919050565b600082821b905092915050565b6000600883026105617fffffffffffffffffffffffffffffffffffffffffffffffffffffffffffffffff82610524565b61056b8683610524565b95508019841693508086168417925050509392505050565b6000819050919050565b6000819050919050565b60006105b26105ad6105a884610583565b61058d565b610583565b9050919050565b6000819050919050565b6105cc83610597565b6105e06105d8826105b9565b848454610531565b825550505050565b600090565b6105f56105e8565b6106008184846105c3565b505050565b5b81811015610624576106196000826105ed565b600181019050610606565b5050565b601f8211156106695761063a816104ff565b61064384610514565b81016020851015610652578190505b61066661065e85610514565b830182610605565b50505b505050565b600082821c905092915050565b600061068c6000198460080261066e565b1980831691505092915050565b60006106a5838361067b565b9150826002028217905092915050565b6106be8261025b565b67ffffffffffffffff8111156106d7576106d661032b565b5b6106e182546104ce565b6106ec828285610628565b600060209050601f83116001811461071f576000841561070d578287015190505b6107178582610699565b86555061077f565b601f19841661072d866104ff565b60005b8281101561075557848901518255600182019150602085019450602081019050610730565b86831015610772578489015161076e601f89168261067b565b8355505b6001600288020188555050505b50505050505056fea264697066735822122066739044c275d60bf3b8a2575b32b86eb0a9f947e864c72558eb8d7568ce194464736f6c63430008130033",
  "linkReferences": {},
  "deployedLinkReferences": {}
}